:020000040800F2
:1000000008040020450100089D0100089501000832
:10001000990100088D010008490200080000000055
:10002000000000000000000000000000A501000822
:100030009101000800000000A1010008A9010008CA
:100040005F0100085F0100085F0100085F01000810
:100050005F0100085F0100085F0100085F01000800
:100060005F0100085F0100085F0100085F010008F0
:100070005F0100085F0100085F0100085F010008E0
:100080005F0100085F0100085F0100085F010008D0
:100090005F0100085F0100085F0100085F010008C0
:1000A0005F0100085F0100085F0100085F010008B0
:1000B0005F0100085F0100085F0100085F010008A0
:1000C0005F0100085F0100085F0100085F01000890
:1000D0005F0100085F0100085F0100085F01000880
:1000E0005F0100085F0100085F0100085F01000870
:1000F0005F0100085F0100085F0100085F01000860
:100100005F0100085F0100085F0100085F0100084F
:100110005F0100085F0100085F0100085F0100083F
:100120005F0100085F0100085F0100085F0100082F
:10013000DFF80CD000F018F800480047650200080E
:10014000080400200648804706480047FEE7FEE70F
:10015000FEE7FEE7FEE7FEE7FEE7FEE7FEE7FEE777
:10016000B101000831010008064C074D06E0E068C7
:1001700040F0010394E8070098471034AC42F6D3EE
:10018000FFF7DAFF6403000874030008FEE70000CD
:1001900070470000FEE70000FEE700007047000027
:1001A000704700007047000080B500F04FF880BD38
:1001B00080B582B04EF68851CEF200010A6841F255
:1001C000000042F47002C4F202000A60016841F0CB
:1001D0000101016001688907FCD5416841F0800197
:1001E000416000210191019A4F2A05D8019A0132FC
:1001F0000192019A502AF9D3426842F0900242607B
:10020000019101994F2905D8019901310191019975
:100210005029F9D341684FF6FF7221F00301416084
:100220000168CFF6F662114001604FF41F01816052
:10023000016821F48021016000214160C16200F069
:100240007DF802B080BD0000FEE7000040F2000033
:10025000C2F200000168002908BF70470168013937
:1002600001607047FEE7000041F20400C4F20200A2
:1002700050F8041C41F4803140F8041C4FF6FE7124
:1002800050F8043C4A1E8A4203D213F4003111464E
:10029000F6D050F8041C890301D400BFFEE7826940
:1002A00047F2000142F08052C4F2000182610A6804
:1002B0004FF6FF7342F440420A600268CBF2C37308
:1002C000026002680260026842F4806202600268B2
:1002D00022F440320260026842F440320260026856
:1002E0001A400260026842F0006242F4501202605A
:1002F00050F8042C42F0807240F8042C50F8042C82
:100300009201FBD50A6842F480320A604A68D2033F
:10031000FCD50A6842F400320A6000BF4A689203C2
:10032000FCD5016821F003010160016841F0020180
:10033000016000BF01680907FCD5704780B5FFF771
:1003400093FF80BD02E008C8121F08C1002AFAD13D
:1003500070477047002001E001C1121F002AFBD145
:10036000704700007403000800000020080400002B
:04037000540300082A
:0400000508000131BD
:00000001FF
