:020000040800F2
:100000000804002045010008C9010008C1010008DA
:10001000C5010008B9010008A502000800000000A1
:10002000000000000000000000000000DD010008EA
:10003000BD010008000000005B0100085D01000830
:100040005F0100085F0100085F0100085F01000810
:100050005F0100085F0100085F0100085F01000800
:100060005F0100085F0100085F0100085F010008F0
:100070005F0100085F0100085F0100085F010008E0
:100080005F0100085F0100085F0100085F010008D0
:100090005F0100085F0100085F0100085F010008C0
:1000A0005F0100085F0100085F0100085F010008B0
:1000B0005F0100085F0100085F0100085F010008A0
:1000C0005F0100085F0100085F0100085F01000890
:1000D0005F0100085F0100085F0100085F01000880
:1000E0005F0100085F0100085F0100085F01000870
:1000F0005F0100085F0100085F0100085F01000860
:100100005F0100085F0100085F0100085F0100084F
:100110005F0100085F0100085F0100085F0100083F
:100120005F0100085F0100085F0100085F0100082F
:10013000DFF80CD000F02EF800480047C502000898
:10014000080400200648804706480047FEE7FEE70F
:10015000FEE7FEE7FEE7FEE7FEE7FEE7FEE7FEE777
:100160000D0200083101000830B50B4601460020A1
:100170002022012409E021FA02F59D4205D303FA69
:1001800002F5491B04FA02F52844151EA2F10102EA
:10019000F1DC30BD064C074D06E0E06840F001039D
:1001A00094E8070098471034AC42F6D3FFF7C4FF39
:1001B000D4060008F4060008FEE7000070470000BF
:1001C000FEE70000FEE70000704700004EF62351F6
:1001D0000001CEF200010870704700007047000077
:1001E000B0B501380024B4EB106F1CBF0120B0BDC6
:1001F0004EF21005CEF2000568600F20FFF7E6FF13
:100200000720AC6028602046B0BD000080B582B0F9
:100210004EF68851CEF200010A6841F2000042F425
:100220007002C4F202000A60016841F0010101603D
:1002300001688907FCD5416841F0800141600021D7
:100240000191019A4F2A05D8019A01320192019A2F
:10025000502AF9D3426842F090024260019101991C
:100260004F2905D801990131019101995029F9D3FC
:1002700041684FF6FF7221F0030141600168CFF63B
:10028000F662114001604FF41F018160016821F4A2
:100290008021016000214160C16200F02BF902B0B1
:1002A00080BD0000FEE7000010B50446C1B2012089
:1002B00000F03AF90120072100F03AF90028F9D0BE
:1002C000204610BD00F01AF9002000F03BF801466E
:1002D0000CA000F035F9012000F034F801460DA023
:1002E00000F02EF9022000F02DF801460DA000F0DC
:1002F00027F9032000F026F801460EA000F020F9AF
:10030000FEE700BF0D0A434B5F535953206973202A
:10031000256400000D0A434B5F4148422069732069
:10032000256400000D0A434B5F4150423120697340
:10033000202564000D0A434B5F415042322069730F
:100340002025640010B541F20402C4F202021168D3
:1003500001F00C01082941F20021C0F27A012BD1F1
:100360001368DB0304D440F6001CC0F23D0C0DE022
:10037000936AD2F800C05B0046F60043C0F2DC236B
:1003800058BF0B46CCF3404123FA01FC13681168B7
:10039000C3F3834E102303EAD15113688E44202106
:1003A00001EA536171440B463F2918BF01330F29FD
:1003B00038BF8B1C03FB0CF11368D2F800C0146823
:1003C00003280DD8C3F303130FA2D25C0FF2480E1B
:1003D00021FA02F3DFE800F01502070F184610BDFE
:1003E0000021084610BDCCF302201EF8000023FABD
:1003F00000F1084610BDC4F3C2201EF8000023FA25
:1004000000F1084610BD00BF000000000000000021
:1004100001020304060708090000000001020304AA
:1004200041F20400C4F2020050F8041C41F480318F
:1004300040F8041C4FF6FE7150F8043C4A1E8A42F4
:1004400003D213F400311146F6D050F8041C89038E
:1004500001D400BFFEE7826947F2000142F08052FA
:10046000C4F2000182610A684FF6FF7342F4404211
:100470000A600268CBF2C37302600268026002681D
:1004800042F480620260026822F440320260026834
:1004900042F44032026002681A400260026842F090
:1004A000006242F45012026050F8042C42F0807254
:1004B00040F8042C50F8042C9201FBD50A6842F451
:1004C00080320A604A68D203FCD50A6842F40032DE
:1004D0000A6000BF4A689203FCD5016821F003015D
:1004E0000160016841F00201016000BF0168090775
:1004F000FCD5704780B5FFF793FF80BD80B540F213
:100500000400C2F20000006844F6D351C1F2620157
:10051000A0FB01018809FFF763FE00B1FEE70020A0
:10052000FFF754FE80BD00006FF35F21416070470C
:100530008A09105801F01F01C84000F001007047FF
:100540000FB4054B10B503A9044A029800F018F83F
:1005500010BC5DF814FB0000A90200080000002098
:1005600002E008C8121F08C1002AFAD1704770477C
:10057000002001E001C1121F002AFBD170470000DA
:100580002DE9FF4F89B09B460446002506E025284B
:100590000BD05A460B999047641C6D1C207800289C
:1005A000F5D10DB02846BDE8F08F0027B8460122EE
:1005B000474900E0074314F8013F203B02FA03F0EB
:1005C0000842F7D120782E2819D114F8010F47F0EE
:1005D00004072A280ED06FF02F022078A0F13001F6
:1005E00009290CD808EB880102EB410100EB010856
:1005F000641CF2E70A98641C50F8048B0A90207877
:100600000028CED0642808D0692806D075281ED0CE
:100610005A460B9990476D1C58E00A994FF00A0909
:1006200001C90A91002802DA40422D2102E0390571
:1006300004D52B218DF82010012103E0F90704D007
:100640002021F7E78A4608AE0DE00021FAE70A9973
:100650004FF00A0901C90A91F7E74946FFF784FDFF
:10066000303106F8011D0028F7D1ADEB060000F18E
:100670002009780701D44FF00108C84502DDA8EB36
:10068000090000E000208046002706E008A85A463E
:10069000C05D0B9990476D1C7F1C5745F6DB04E04D
:1006A00030205A460B9990476D1CB8F10001A8F113
:1006B0000108F5DC05E016F8010B5A460B99904746
:1006C0006D1CB9F10001A9F10109F4DC641C65E7B6
:1006D00009280100F80600080000002008000000BA
:1006E0006005000800070008080000200004000062
:1006F000700500080000000000000000000E270741
:0400000508000131BD
:00000001FF
