:020000040800F2
:10000000B014002089010008891C0008BD1A0008EE
:10001000851C000891020008F53800080000000067
:100020000000000000000000000000009D2000080B
:1000300089050008000000006D200008D12000089C
:10004000A3010008A3010008A3010008A301000800
:10005000A3010008A3010008A3010008A3010008F0
:10006000A3010008A3010008A3010008A3010008E0
:10007000A3010008A3010008A3010008A3010008D0
:10008000A3010008A3010008A3010008A3010008C0
:1000900069380008A3010008A3010008A3010008B3
:1000A000A3010008A3010008A3010008A3010008A0
:1000B000A3010008A3010008A3010008A301000890
:1000C000A3010008A3010008A3010008A301000880
:1000D000A3010008A3010008A3010008A301000870
:1000E000A3010008A3010008A301000800F002F822
:1000F00000F03AF80AA090E8000C82448344AAF188
:100100000107DA4501D100F02FF8AFF2090EBAE885
:100110000F0013F0010F18BFFB1A43F0010318473B
:100120000439000024390000103A24BF78C878C18F
:10013000FAD8520724BF30C830C144BF04680C60ED
:10014000704700000023002400250026103A28BF35
:1001500078C1FBD8520728BF30C148BF0B60704739
:100160001FB51FBD10B510BD00F058F81146FFF7C0
:10017000F7FF03F00DFC00F076F803B4FFF7F2FF91
:1001800003BC00F07DF8000009488047094800479B
:10019000FEE7FEE7FEE7FEE7FEE7FEE7FEE7FEE737
:1001A000FEE7FEE704480549054A064B7047000094
:1001B00051210008ED000008B00E0020B01400200E
:1001C000B0100020B01000204FF0000200B5134620
:1001D00094469646203922BFA0E80C50A0E80C5067
:1001E000B1F12001BFF4F7AF090728BFA0E80C5018
:1001F00048BF0CC05DF804EB890028BF40F8042B11
:1002000008BF704748BF20F8022B11F0804F18BF7D
:1002100000F8012B7047704770477047754600F033
:100220002BF8AE4605006946534620F00700854688
:1002300018B020B5FFF7B6FFBDE820404FF000062C
:100240004FF000074FF000084FF0000BAC46ACE851
:10025000C009ACE8C009ACE8C009ACE8C00921F0AD
:1002600007018D46704710B50446AFF30080204665
:10027000BDE81040FFF781BF00487047D80000205C
:1002800001491820ABBEFEE72600020070470000BF
:10029000FEE70000D0F8B80290F81814092988BFCA
:1002A0007047012202FA01F111F41B7F1FBF0221E6
:1002B00080F818140022C0F810241EBFA0F81414EF
:1002C000C0F80024C0F8042470470000D0F8B80239
:1002D00090F818140A2908D10221002280F8181475
:1002E000C0F8102480F8141407E00A210E2280F8C8
:1002F0001814C0F8102480F81414002180F8151484
:100300007047000010B50446D0F8B80290F81824E1
:10031000092A12D8012303FA02F212F41B7F1FBF2D
:10032000022280F818240023C0F810341EBFA0F861
:100330001424C0F80034C0F8043440F25C00C2F267
:100340000000407DC00603D4488800F083F910BD4A
:10035000204602F0D1FD204602F0BCFC10BD00009A
:1003600080B58C46D0F8B812BCF8062091F8183445
:100370008AB1052B01D0022B1AD1BCF80230C1F88A
:100380000424C1F80034032381F8183481F81434AC
:1003900001F05EFF80BD052B01D0022B08D14FF488
:1003A0008370A1F818044FF0C060C1F8110480BD3B
:1003B000614601F043FF80BD80B5D0F8B81201223C
:1003C00001F5836101F05EFF80BD0000B0B5D0F89B
:1003D000B852044695F8180406281BD0032845D1C6
:1003E000D5F8040460B3042085F81804D5F8000497
:1003F00005F582624FF08061C5F81114C0B9287804
:10040000412815D1D4F8BC0200218369D5F808042D
:1004100098472BE095F81904D0B1012826D1072080
:1004200085F818040120C0F20070C5F811041DE021
:10043000D4F8BC0201218369D5F80804984715E077
:10044000052085F818044FF0A060C5F811040DE0F0
:1004500040F25C00C2F20000007D400706D5022099
:1004600085F818044FF00070C5F8110405F5826195
:100470002046062201F006FFB0BD000010B540F294
:100480005C01C2F20001097D0446D0F8B8020022E6
:10049000490780F8192441BF062180F818144FF04D
:1004A000C061C0F8111448BF10BD082180F81814AD
:1004B0004FF00061C0F81114204602F01DFDD4F881
:1004C000BC028068804703F051FA0000B0B5CA88CA
:1004D000D0F8B85232B3044695F81804092801D070
:1004E000022827D14888C5F804240128C5F800044B
:1004F00026D080BB0920032A88BF022085F8180473
:1005000085F814044FF40450002128804120A5F8F8
:10051000111485F81314A87020462946032201F00F
:10052000B1FEB0BD022085F818044FF00070C5F888
:100530001104B0BD0020C5F80004C5F8040406E0AD
:100540000F2085F818044FF07060C5F8110420469C
:1005500001F074FEB0BD092185F818144FF0106148
:10056000C5F81114D5F80814D4F8BC3201EB80207A
:100570005B69A0F5006029469847B5F80424014658
:10058000204601F07FFEB0BD70470000EFF3108001
:1005900072B600BFFEE70000B0B54FF2E871C1F6D9
:1005A000FF7108688A68801808BFB0BD40F2B805BE
:1005B000C2F200054C68A91C082201F081FA05F17D
:1005C00012012046042201F07BFAB0BD014600284A
:1005D0004FF0010008BF70472DE9F043D1F800C08B
:1005E0004FF6F873CBF6FD734CF6CD426344CCF670
:1005F000CC42A3FB02236FF0030707EA9303002713
:10060000C4F2020701F10C09C1E90F730223D1E919
:10061000012E99E87002D1F81C8081F82130DCF8B5
:10062000003043F6F077BB431A4342EA0E022243FE
:100630002A43324342EA090242EA0802CCF8002087
:1006400000228A6381F8210081F820200020BDE883
:10065000F0437047B0B5044600F00EF9054640F28D
:10066000D200C2F200000078611C18BF044400BF31
:1006700000F002F9401BA042FAD3B0BD2DE9F04FC3
:1006800082B00E68002E00F0F38041F20042C4F206
:100690000102042340F2004E904208BF03234FF6AC
:1006A000FF7CC4F2010E009300240123C1F2100C60
:1006B0004FF0000A4FF0000941E0012504F00C035F
:1006C0000F279F402BEA070705FA03F33B4342F845
:1006D00026304E6840F20C45F202DEF8082054BF86
:1006E00022EA080242EA0802C4F20105CEF8082014
:1006F0002A68B30254BF22EA080242EA08022A60CA
:10070000B303DEF8042054BF22EA080242EA0802DA
:10071000F303CEF80420DEF800204FF0010354BFAD
:1007200022EA080242EA0802CEF800200E680AF126
:10073000010A36FA0AF204F1040400F0998003FA7F
:100740000AFB16EA0B08F1D04A68624510DC122A4F
:1007500050D8DFE802F0330A41454F4F4F4F4F4F1B
:100760004F4F4F4F4F4F4F484C00D1F80C9041E046
:100770004FF6FF75C1F22105AA420FDC0025C1F238
:100780001105AA421AD00025C1F21205AA4215D0BD
:100790000025C1F22105AA4210D02BE00025C1F2AC
:1007A0002205AA420AD00025C1F23105AA4205D08D
:1007B0000025C1F23205AA421CD100BF8A6842B1AD
:1007C000012A14BFC0F814B0C0F810B04FF00809E7
:1007D00010E04FF004090DE0CA6802F1080909E0D1
:1007E0004FF0000906E0CA6802F1040902E0CA6895
:1007F00002F10C0922460546B8F5807F24BF203A55
:1008000004352E680F279740BE4309FA02F232439F
:100810002A60CA79D2067FF589AF41F21803C4F283
:1008200002031A684FEA9A0642F001021A601A6837
:1008300040F6000302F001020192019AAEF57E72C9
:1008400052F826B0C4F2010398420FD040F600439C
:10085000C4F2010398423FF430AF41F20003C4F206
:100860000103009D984208BF022527E7002525E7E0
:1008700002B0BDE8F08F000040F6AC60C2F20000AC
:100880000068704740F2D20040F6AC61C2F200004E
:10089000C2F2000100780A68104408607047000046
:1008A00080B542F20000C4F20200016841F010017C
:1008B0000160032000F066F80F2000F005F800F05A
:1008C0002BF8002080BD0000B0B540F2D202C2F289
:1008D000000240F21C011278C2F200014FF47A7358
:1008E0000968B3FBF2F20446B1FBF2F1084601F0ED
:1008F00043F80F2C4FF001050CD858B94FF0FF30DA
:1009000021460022002500F02DF840F2D400C2F26A
:10091000000004602846B0BD82B041F21800C4F265
:1009200002000168022241F001010160016801F04A
:10093000010101910199416841F080514160406895
:1009400000F08050009000980420C4F2010001687B
:1009500062F31A61016002B07047000080B502F0D6
:10096000CBFF80BD70B514460D46064602F0D4FF9D
:100970002946224601F08AF90146304602F0D4FFAA
:1009800070BD000080B502F0E1FF80BD80B501F0D0
:10099000070C0CEB8C0C00EBCC0C0CF1280C01EBD5
:1009A000810E090600EBCE0058BF00F5B47C4AB1B9
:1009B00001208CF80C00180CACF80A000020ACF8F0
:1009C000083080BD00208CF80C000020ACF8063008
:1009D00080BD00007047000080B501EB8102D0F8B7
:1009E000EC3200EBC200C26B184601F03FFF80BD45
:1009F00080B501EB8102D0F8EC3200EBC200D0F8F8
:100A00007C21184601F094FF80BD0000B0B504467B
:100A1000406801F00F02824284BF0120B0BD080689
:100A200001F0070000EB800104EBC10205D402F5E0
:100A3000B471002382F8693104E0012302F1280136
:100A400082F8293094F8A8220025012A8D700870B8
:100A500004BF0220B0BD2068012284F8A82202F061
:100A600097FB284684F8A852B0BD0000B0B50068D6
:100A70005304B0F8504091F800E048F2C00C04EB89
:100A8000CE0400EB440316D4B3F80C448B696FF327
:100A90009F241B1B38BF00238B611AD9520624D414
:100AA00030F82E2040F60F731A4042EA0C0220F86C
:100AB0002E20DCB93BE0B3F804448B696FF39F242C
:100AC0001B1B38BF00238B6113D952061DD434BBC6
:100AD0002DE030F82E3043F60F752B400CF5FE5507
:100AE0006B4020F82E305206DAD504B34B694A89A0
:100AF00017E030F82E3043F60F752B400CF5FE55FD
:100B00006B4020F82E305206E1D530F82E2040F60A
:100B10000F731A4042EA0C0220F82E203CB14B69B8
:100B20000A891946234602F0ABFE2046B0BD204696
:100B3000B0BD0000F0B581B00746006816460D460E
:100B4000B0F850200978730602EBC10200EB4202B4
:100B500030D4B2F80C24AB696FF39F229B1A38BFD4
:100B60000023AB6155D9730409D430F8213040F625
:100B70000F7633404CF28006334320F8213095F84D
:100B80002430012B40F06481D5E904E4D5E9076302
:100B900004EB020CB4187345C5F814C0EC6180F086
:100BA0009C80002B00F0FE8000229E462A6285F881
:100BB0002420FBE0B2F80424AB696FF39F229B1A58
:100BC00038BF0023AB613AD9730409D530F821301E
:100BD00040F60F7633404CF28006334320F8213044
:100BE00095F82430012B40F03381D5E90436D5E95E
:100BF000074E06EB020C14449E45C5F814C0EC6188
:100C00006FD20026BEF1000F85F824606CD19646A5
:100C10006BE06A78012A28D0002A40F08E80B0F874
:100C2000503000EB01142344B3F804446FF39F24C5
:100C3000A3F80444B3F8044444F400441BE06A7885
:100C4000012A2ED0002A40F09380B0F850C000EB6B
:100C500001136344B3F804446FF39F24A3F80444DE
:100C6000B3F8044444F4004421E0B0F8503000EB01
:100C7000011423440024012AA3F8044455D0002A77
:100C80005BD1B0F8502000EB01101044B0F80C24F8
:100C90006FF39F22A0F80C24B0F80C2442F4004219
:100CA00049E0B0F8503000EB011423440024012A3D
:100CB000A3F8044454D0002A5AD1B0F8502000EBD5
:100CC00001101044B0F80C246FF39F22A0F80C24FC
:100CD000B0F80C2442F4004248E0A3EB0E022A6272
:100CE00064E0AEEB03069E462E626A78012A51D07C
:100CF000002A40F09C80B0F8502000EB011101F276
:100D000004418B5ABEF13F0F6FF39F238B5274D374
:100D10005FEACE664FEA5E13565A4FF0FF3408BFC3
:100D200004EB5E1346EA83237EE0B0F8502000EB2C
:100D3000011010440022A0F80C243846FFF74CFEA6
:100D4000700400F185803868297840F60F7330F818
:100D500021201A404CF280031A4320F8212077E02A
:100D6000B0F8502000EB011010440022A0F80C2431
:100D70003846FFF731FE70046AD53868297840F6A6
:100D80000F7330F821201A404CF280031A4320F8E8
:100D900021205DE0B0F8502000EB01111144A1F8D2
:100DA00004E444E0002385F8243096466A78012A5A
:100DB0001BD0002A46D1B0F8502000EB011101F2FF
:100DC0000C418B5ABEF13F0F6FF39F238B521FD301
:100DD0005FEACE664FEA5E13565A4FF0FF3408BF03
:100DE00004EB5E1346EA832329E0B0F8502000EBC1
:100DF00001111144A1F80CE424E0BEF1000F12D05F
:100E00000EF00103545A03EB5E0344EA83230DE022
:100E1000BEF1000F12D00EF00103545A03EB5E0333
:100E200044EA83230DE0535A43F4004353522A8982
:100E30001FFA8EF3614602F047FD09E0535A43F46E
:100E4000004353526A891FFA8EF3614602F03CFD5B
:100E50003868297840F63F7330F821201A4048F26C
:100E6000B0035A4020F8212001B0F0BDB0B50546CE
:100E7000080601F0070000EB800105EBC10C05D46A
:100E80000CF5B47100248CF8694104E001240CF1E4
:100E900028018CF8294008700A61022BCB7004BF2E
:100EA0000020087195F8A802012804BF0220B0BDF7
:100EB0002868012285F8A82202F034F8002085F87D
:100EC000A802B0BD10B501F0070C0CEB8C0100EBD3
:100ED000C10E00680EF5B4710024CEF87C21CEF866
:100EE0008031CEF884418EF869418EF868C102F0F5
:100EF000A9F9002010BD0000B0B50446406801F01B
:100F00000705854284BF0120B0BD080609D401EB66
:100F1000810004EBC00000F5B471002280F8692163
:100F200008E005EB850004EBC000012200F1280178
:100F300080F8292094F8A802012201288A700D70F7
:100F400004BF0220B0BD206884F8A82202F060F936
:100F500025B9206804F52C7102F018F9002084F8F6
:100F6000A802B0BD80B501F0070C0CEB8C0100EBC2
:100F7000C10101F828CF00684FF0010C01F11407FE
:100F800081F824C04FF0000E87E80C400B6281F816
:100F900001C002F057F9002080BD000010B584B0F8
:100FA0000446006802F068FC010417D441051AD415
:100FB000410428D481042CD4C10430D4010547D481
:100FC000810500F18E80C00506D52068B0F8441078
:100FD00021F48071A0F8441004B010BD204600F048
:100FE0006BFE04B010BD2068B0F8441021F480619D
:100FF000A0F84410204600F01DF92046002100F022
:1010000037F904B010BD2068B0F8441021F48041D5
:101010001AE02068B0F8441021F4005114E0206870
:10102000B0F8401021F00401A0F84010B0F84010D2
:1010300021F00801A0F84010204600F00DF92068CA
:10104000B0F8441021F48051A0F8441004B010BD51
:1010500020686FF00102011FEC4600BF31F8043F29
:101060000CEB020002320E2A4380F7D12168B1F85E
:10107000400040F00100A1F84000B1F8400020F02D
:101080000100A1F8400000BFB1F844004005FBD5C5
:10109000B1F844000A1F20F480606FF00103A1F84A
:1010A000440000BF0CEB0300408802330E2B22F8F3
:1010B000040FF7D1B1F8400040F00800A1F840005B
:1010C000B1F8440020F40060A1F84400B1F84000F9
:1010D00040F00400A1F84000204600F01BF904B0E5
:1010E00010BD2068B0F8441021F40071A0F844103D
:1010F000204600F0B7F804B010BD0000F0B585B090
:10110000F8B1044690F8A90228B9002084F8A80292
:10111000204600F06DF8032084F8A902206802F050
:101120002BF894E82F50D4E907678DE82050CDE9DB
:10113000036702F00DF830B1022084F8A9020125FE
:1011400052E0012550E020680021002502F0B2FBAA
:101150006168A1B1616801200023002203EB8303D1
:1011600004EBC30787F828200132D3B2994287F8ED
:10117000290087F82B50C7E90E553D64EED8A9B178
:1011800000200023002200BF03EB830304EBC3070E
:1011900087F868210132D3B2994287F8690187F84C
:1011A0006B01C7E95E00C7F88001EDD804F10807BC
:1011B000D4E9056520688CCFD4E907CECDE9007667
:1011C00002AE86E8205001F0C9FF20B1022084F869
:1011D000A902012508E00025012084F8245084F8A4
:1011E000A902206801F0B8FF284605B0F0BD000054
:1011F00080B582B0006845F60041C4F20001884223
:1012000001D002B080BD41F21C00C4F202000168AE
:10121000002241F4000101600068002100F4000098
:10122000019001981420FFF79DFB1420FFF796FB17
:1012300002B080BD10B504468068022818BFFFF7D1
:10124000A5F9D4F8EC02012101F048FCD4F8EC0235
:1012500001F002FC10BD000080B5D0F8EC0201F0F6
:1012600025FC80BD80B5D0F8EC0201F029FC80BDE2
:1012700010B5044690F8A802012804BF022010BD52
:10128000012084F8A80284F82410206802F014FBDE
:10129000002084F8A80210BD80B5D0F8EC2200F53B
:1012A0002C71104601F026FC80BD000010B50446EC
:1012B00090F8A802012804BF022010BD2068012177
:1012C00084F8A81202F0C6FA20460121FFF782FB3B
:1012D000206801F03FFF002084F8A80210BD000044
:1012E000B0B5044690F8A802012804BF0220B0BDA2
:1012F0002068012184F8A81201F03EFF2046002159
:101300000025FFF767FB206801F026FF284684F8D8
:10131000A852B0BD10B50446D0F8EC0201F032FC82
:10132000A069002808BF10BD4EF61050CEF2000094
:10133000016841F00601016010BD00002DE9F04197
:1013400082B00446007841F21C06C007C4F20206CF
:101350004AD0306810F0805808D1306840F0805092
:101360003060306800F080500190019847F200072B
:10137000C4F200073868C00512D4386840F48070A1
:101380003860FFF779FA05463868C00508D4FFF7DA
:1013900073FA401B6428F7D9032002B0BDE8F0813E
:1013A000706810F4407012D0616801F44071884296
:1013B0000DD0706840F24042C4F24222012320F472
:1013C000407113600023C0071360716029D17068F9
:1013D000616820F440700843B8F1000F706003D1D9
:1013E000306820F0805030602068810707D556F8BB
:1013F000181CA26821F44041114346F8181CC0068D
:1014000003D4002002B0BDE8F08156F8180CE16862
:1014100020F48000084346F8180C002002B0BDE814
:10142000F081FFF729FA054641F288377068800796
:10143000CDD4FFF721FA401BB8424FF00300F5D995
:10144000ECE700002DE9F04381B0002800F089802E
:1014500042F20008C4F202080446D8F800000D4623
:1014600000F0070088420CD2D8F8000020F00700F6
:101470002843C8F80000D8F8000000F00700A84290
:101480006FD1206841F204098107C4F2020917D51F
:10149000410705D5D9F8001041F4E061C9F8001002
:1014A000010705D5D9F8001041F46051C9F80010C2
:1014B000D9F80010A26821F0F0011143C9F800101A
:1014C000C00745D1D8F8000000F00700A8420CD9A9
:1014D000D8F8000020F007002843C8F80000D8F82A
:1014E000000000F00700A8423BD12068410707D563
:1014F000D9F80010E26821F4E0611143C9F8001046
:10150000000708D5D9F80000216920F4605040EAAE
:10151000C100C9F8000000F079F8D9F8001043F6CE
:10152000AE12C1F30311C0F60002515C40F21C027E
:1015300020FA01F140F2D400C2F200000068C2F2C9
:1015400000021160FFF7C0F9002001B0BDE8F08390
:101550006068022809D0012829D159F8041C8903A0
:1015600007D4012001B0BDE8F08359F8041C8901BB
:10157000F7D5D9F8001021F003010843C9F800009D
:10158000FFF77AF9064641F2883700BFD9F8000024
:10159000616800F00C00B0EB810F93D0FFF76CF99D
:1015A000801BB842F2D9032001B0BDE8F08359F89E
:1015B000041C8907D5D5DCE740F21C00C2F200000C
:1015C0000068704780B5FFF7F7FF41F20401C4F2ED
:1015D0000201096843F6BE12C1F30221C0F60002FF
:1015E000515CC84080BD000080B5FFF7E5FF41F2C7
:1015F0000401C4F20201096843F6BE12C1F3C2211C
:10160000C0F60002515CC84080BD000041F2040CED
:10161000C4F2020CDCF8003003F00C00082841F2A0
:101620000020C0F27A0018BF7047C3F383420AA1BA
:101630008A5CD90305D440F60010C0F23D00504347
:101640007047DCF8001008A3C1F34041595C5043D7
:10165000B0FBF1F0704700BF02030405060708095C
:101660000A0B0C0D0E0F1010010200002DE9F041C5
:1016700082B0002800F0C4800446007841F20006E1
:10168000C007C4F2020643D0706800F00C000428C2
:1016900017D0706800F00C00082802D17068C003F1
:1016A0000FD465682DB1B5F5A02F10D0B5F5803FEA
:1016B00011D0306820F480303060306820F4802011
:1016C0000CE03068800323D5606808BB98E0306880
:1016D00040F480203060306840F480303060FFF7A4
:1016E000CBF8002D054610D03068800310D4FFF7EA
:1016F000C3F8401B6428F7D904E100BFFFF7BCF82A
:10170000401B64284FF0030077D830688003F5D47D
:101710002078800718D5706810F00C0F07D070681B
:1017200000F00C00082826D17068C00323D430686C
:10173000800702D52069012862D13068616920F0F4
:10174000F80040EAC1003060207800073DD5A0696C
:1017500038B30020C4F242200121C0F88014FFF702
:101760008BF80546706A80072DD4FFF785F8401B7B
:101770000228F7D9C6E02069002840F20000C4F230
:10178000422000F0968001210160FFF775F80546C0
:1017900030688007D1D4FFF76FF8401B0228F7D9D3
:1017A000B0E00020C4F242200021C0F88014FFF70E
:1017B00063F80546706A800707D5FFF75DF8401BA0
:1017C0000228F7D99EE000F053FC207840071BD494
:1017D000E5698DB1706800F00C00082847D1012D33
:1017E0000ED07068216A00F480328A4208D1616AA2
:1017F00000F47010884203D1002002B0BDE8F081EF
:10180000012002B0BDE8F081F06910F0805808D1E5
:10181000F06940F08050F061F06900F08050019074
:10182000019847F20007C4F200073868C00510D4D9
:10183000386840F480703860FFF71EF8054600BF36
:101840003868C00505D4FFF717F8401B6428F7D99E
:1018500058E0E5681DB1052D3CD0012D3ED0306A21
:1018600020F001003062306A20F0040039E00027E7
:10187000C4F2422700203866FEF7FEFF022D05461F
:101880000CD100BF3068800154D5FEF7F5FF401B36
:1018900002284FF00300F5D9AFE700BF30688001A0
:1018A000AAD5FEF7E9FF401B02284FF00300F5D947
:1018B000A3E700210160FEF7DFFF054630688007DF
:1018C0007FF542AFFEF7D8FF401B02284FF0030020
:1018D000F4D992E7306A40F004003062306A40F098
:1018E00001003062FEF7C8FF002D054641F288373F
:1018F00014D000BF306A800713D4FEF7BDFF401B31
:10190000B842F7D9032002B0BDE8F081FEF7B4FF7A
:10191000401BB8424FF003003FF66FAF306A8007BC
:10192000F4D4B8F1000F7FF453AFF06920F0805089
:10193000F0614DE7206AB0F5803F05D17168A2687B
:1019400021F40031114371607168626A21F47411ED
:1019500010430843706001203866FEF78DFF04468F
:10196000306880013FF548AFFEF786FF001B022874
:101970004FF00300F4D940E780B500F091FB80BD43
:10198000002804BF0120704710B5044690F84100BC
:1019900028B9002084F84000204600F021F82420D7
:1019A00084F841002068C16821F40051C1602046DC
:1019B00000F0D0FB2068016921F490410161416988
:1019C00021F02A014161C16841F40051C160002049
:1019D0002021606484F8411084F84210606310BDD7
:1019E00070B586B040F60044C4F201040068A4F566
:1019F0004441002688420596CDE90366029601D04F
:101A000006B070BD41F21800C4F20200416802AD98
:101A100041F480214160416801F4802101910199E4
:101A2000016841F0080101600068294600F00800E3
:101A3000019001984FF480600290022003900320EF
:101A400005902046FEF71AFE4FF40060CDE902062D
:101A5000204629460496FEF711FE06B070BD000030
:101A6000002804BF0120704710B5044600F00CF8B0
:101A7000E26894E80B0042F08002026022691143A0
:101A800019434160002010BD81B0006842F600415A
:101A9000C4F20001884201D001B0704741F21C003D
:101AA000C4F20200016841F400610160006800F4C2
:101AB00000600090009801B070470000FEE7000051
:101AC00010B5002A08BF10BD02394FF0370C4FF097
:101AD000000E00BF0CEB1074B0F1204F4FEA1073F2
:101AE00038BF03F1300401F8024F0001013A81F8D8
:101AF00001E0EFD110BD00000020704700207047CA
:101B00000020704700207047002070470020704779
:101B100080B582B041F21400C4F20200016840F2C4
:101B2000080E41F0010101600068C4F2020E00F0ED
:101B300001000190019840F61C30C2F200004FF401
:101B4000804240234FF0800C0021C0E900E2C0E950
:101B5000023CC0E90411C0E90611FEF737FD002878
:101B600004BF02B080BDFEF711FD000083B041F25A
:101B70001800C4F20200016841F020010160016810
:101B800001F0200102910299016841F00801016011
:101B9000016801F0080101910199016841F0040117
:101BA0000160006800F004000090009803B07047E6
:101BB00080B540F6506044F60001C2F20000C4F265
:101BC000000100234FF00C0C4FF4E13280E80E00CE
:101BD000C0E90333C0E905C3C361FFF7D1FE0028A4
:101BE00008BF80BDFEF7D2FC80B540F6580040F239
:101BF0000001C2F20000C2F20001002200F016FE55
:101C0000002818BFFEF7C2FC40F6580040F2200141
:101C1000C2F20000C2F2000100F0D2FF002818BF9B
:101C2000FEF7B4FC40F6580040F28401C2F2000016
:101C3000C2F2000100F01AFC002818BFFEF7A6FC53
:101C400040F65800C2F2000001F044F8002818BF26
:101C5000FEF79CFC80BD000080B540F6986042F61F
:101C60000041C2F20000C4F200010022402380E8DB
:101C70000E00C0E90332FFF7F3FE002808BF80BD65
:101C8000FEF784FCFEE70000FEE7000000F007001E
:101C900080F00703042B28BF04234FF0FF3C0338D8
:101CA0000CFA03F338BF0020994381400CFA00F08E
:101CB00022EA0000084370472DE9F04F81B0044646
:101CC0000068B0F94410B1F1FF3F02DD01B0BDE89A
:101CD000F08F4FF0FF3904F52C7140F60F7B009127
:101CE00021E0B0F8501094F8682101EBC20100EB3C
:101CF0004101B1F80C34B4F86E2100996FF39F23C1
:101D0000C4F8843101F0BCFD2068018801EA0B01B0
:101D1000803101802046FFF7BFFA00BF2068B0F98C
:101D200044104945D2DCB0F8442012F00F0825D009
:101D300030F828604FEA480A310440F1F08030F86A
:101D40001A1001EA0B01803120F81A1008EB880103
:101D500004EBC10999F8741109F5B477002900F072
:101D6000898099F86B11022940F095802046394608
:101D70003246FEF77BFE0546B7E000BF0188D2067B
:101D80002BD401EA0B0101F500410180B0F850109D
:101D900094F8282001EBC20100EB4100B0F80404E4
:101DA000E16B6FF39F2060640844E06320460021EC
:101DB000FEF712FE94F824000028AFD0206C002813
:101DC000ACD194F82400216840F08000C0B2A1F8A2
:101DD0004C00002084F82400A0E70A053FF581AFFD
:101DE00009049BD5018801EA0B0180310180B0F81C
:101DF000501094F8682101EBC20100EB4101B1F8E9
:101E00000C346FF39F23C4F884318BB1D4F87C1168
:101E100071B1B4F86E2101F033FDD4F87C01D4F82F
:101E200084110844C4F87C0120460021FEF7E0FD3F
:101E3000206801880A053FF571AF01F44051B1F502
:101E4000405F3FF46BAFB0F8501000F20C42535AB1
:101E50006FF39F235352D4F878313F2BC0F0EA80C0
:101E6000DE068E5A4FEA531708BF09EB531746EAAE
:101E70008723E9E0B0F850103A7801EBC20100EB9B
:101E80004101B1F80C546FF39F2575B3D9F87C115B
:101E9000B9F86E2126E0397848F2C00330F82120E5
:101EA00002EA0B021A4320F8212030F82120B0F872
:101EB0005030520403EBC10100EB410109D4B1F8E9
:101EC0000C546FF39F2585B1D9F87C11B9F87221B4
:101ED00008E0B1F804546FF39F2535B1D9F87C11AF
:101EE000B9F870212B4601F0CBFCD9F88411D9E95F
:101EF0005F0229442844C9F88411C9F87C011AB149
:101F0000D9F87801A84204D939782046FEF770FD47
:101F100003E02068394601F095F94FF0FF393006AB
:101F20007FF5FCAE206808EB880130F81A2004EB3E
:101F3000C10302EA0B0101F5004120F81A1093F8E1
:101F40002B10012903F128011FD193F83420002A16
:101F50004FF000021A6468D0720638D493F8292032
:101F6000012A4FD0002A60D1B0F850200B781044DD
:101F700000EB0310B0F80C246FF39F22A0F80C24A0
:101F8000B0F80C2442F4004243E0F2051AD4B0F851
:101F900050700A781E6C07EBC20700EB4707B7F8D2
:101FA000047400256FF39F27F61B38BF2E461E646E
:101FB00025D9DA6B5E6C3A44DA63F2195A6401F09F
:101FC00041F9ABE620463246FEF7B4FDA6E693F8AB
:101FD0002920012A20D042BBB0F850200B781044B1
:101FE00000EB0310B0F804246FF39F22A0F8042440
:101FF000B0F8042442F40042A0F8042415E020467E
:10200000114614E0B0F850200B78104400EB031098
:102010000022A0F80C2408E0B0F850200B781044FF
:1020200000EB03100022A0F8042409782046FEF7F4
:10203000D3FC73E63BB103F001078E5A07EB530361
:1020400046EA832305E08B5A48F20007CFF6FF7774
:102050003B438B52018843F60F72114048F2C00295
:1020600002F53F525140018058E6000070470000E1
:1020700081B040F21C00C2F20000006844F6D35167
:10208000C1F26201A0FB0101480A009000BF009864
:10209000411E00280091F9D101B07047704700003F
:1020A000B0B501380024B4EB106F1CBF0120B0BDE7
:1020B0004EF21005CEF2000568604FF0FF300F21A0
:1020C00001F032FC0720AC6028602046B0BD000063
:1020D00080B5FEF7D7FB80BD70B594B00AAC204642
:1020E0002821FEF771F801200A900E904FF4E010BD
:1020F00000254FF480310226139020460995CDE942
:102100000755CDE90555CDE90355CDE90155CDE993
:102110000B15CDE91161FFF7A9FAB8B90F20CDE988
:1021200005064FF48060CDE9080505A80221079552
:10213000FFF788F950B9102001900020049001A801
:10214000FFF7FCF8002804BF14B070BDFEF71EFABC
:102150007047000010B504460068D4E902C2236944
:10216000016921F4405111430161616943EA0C02A4
:102170001143C26841F20C639A431143C160416943
:10218000A26921F44071114343F60002C4F2010236
:102190009042416102D0FFF715FA01E0FFF724FAFF
:1021A0006268192148439100B0FBF1F048F21F51D9
:1021B000C5F2EB11A0FB01235A096FF0630302FB88
:1021C0000300322303EB0010A0FB0101F02303EA1C
:1021D0005113206803EB0212C1F3431111448160D3
:1021E00010BD000080B5D0F8B4225268904700209E
:1021F00080BD000080B590F89C22013A022A09D8DF
:102200004988012918BF80BD0021C0F8A41200F040
:1022100047F880BD00F012F880BD000080B513467D
:102220000A46002100F010FC002080BD80B5134656
:102230000A46002100F0B0FC002080BD10B58021CE
:10224000044600F087FC2046002100F083FC10BD0E
:1022500080B513460A460321C0F894120021C0E954
:10226000573300F0F1FB002080BD000080B5052150
:10227000C0F8941200210022002300F0E5FB0020AA
:1022800080BD000080B513460A460221C0F89412B2
:102290000021C0E9073300F07FFC002080BD000072
:1022A00080B50421C0F8941200210022002300F020
:1022B00073FC002080BD00000020704700207047A4
:1022C000B0B50446D0F8B8020025022180F81054B9
:1022D00080F81414D4F8B822C0F80054C0F804549C
:1022E00080F818144AB1D4F8BC0280688047D4F84A
:1022F000B80200F00FFEC4F8B8520020B0BD0000D4
:102300000020704710B582B0D0F8B84294F8181485
:1023100007291DD004291DD1D4F8001401294BD060
:10232000D9B9217841292BD0212908D0B9BBD4F8BB
:102330000424012A40D0412922D021292FD1D4F8C8
:102340000424052A1AD1D4F80100C4F8080433E0A3
:10235000FEF794F8002002B010BDD4F80834D0F88D
:10236000BC02D4F8042403EB81210369A1F50061C8
:102370002046984700B3022002B010BD41290ED17B
:10238000D4F8041405290AD1D0F8BC12D4F80100FD
:10239000C968C4F8080488470028ECD10CE0002183
:1023A000C4F80014C4F804148DF800100121ADF82D
:1023B00006106946FFF742FF0321002084F8181435
:1023C0004FF04071C4F80004C4F80404C4F81114B8
:1023D00002B010BD014640F25C001B22C2F20000B8
:1023E0000A807047014640F278000A22C2F20000DB
:1023F0000A80704710B5062984BF002010BDD0F8B0
:10240000BC0240F238140068C2F20004214600F019
:10241000DDF9204610BD000010B5044640F21C4016
:1024200000F07AFDC4F8B802D0B100210223A0F870
:102430001834C0F81014A0F81434D4F8BC324FF09B
:102440000062C0F808245A68C0F80014C0F80414E8
:10245000C0F80C149047002818BF0120400010BDA0
:10246000022010BD0020704700207047002918BFCF
:10247000C0F8BC12002070470020704780B582B0C1
:102480000A78002312F06002ADF806300DD0202A41
:1024900041D14A78062A3ED8DFE802F00442454896
:1024A0004B4E5100FDF72EFF50E04B780B2B32D8EE
:1024B000D0F8B8C2DFE803F0062F2F2F2F2F0E2FF2
:1024C0002F2F1E2690F89C22032A24D10DF10601FD
:1024D000022239E0CA784FF40453B3EB022F31D112
:1024E000CA8840F25C01C2F200011231092A28BFF9
:1024F000092229E090F89C22032A0CD10CF20C410D
:10250000012221E08B7833B990F89C22032A02D172
:10251000CCF80C341AE0FFF791FE022002B080BD27
:10252000FDF71EFF12E0FDF7D1FF0FE0FDF74EFFB4
:102530000CE0FDF7CBFE09E0FDF73EFF06E0FDF7FE
:10254000A9FE03E000210022FFF79CFE002002B05C
:1025500080BD000010B540F23824C2F200040A46E3
:1025600002A0214600F032F9204610BD4446552015
:10257000436F6E666967000040F2A0001222C2F24B
:1025800000000A807047000010B540F23824C2F203
:1025900000040A4602A0214600F018F9204610BDAA
:1025A00044465520496E746572666163650000009B
:1025B00040F2B4000422C2F200000A80704700001A
:1025C00010B540F23824C2F200040A4602A02146A7
:1025D00000F0FCF8204610BD53544D6963726F65DE
:1025E0006C656374726F6E696373000010B540F2BE
:1025F0003824C2F200040A4602A0214600F0E6F8A0
:10260000204610BD53544D333220446F776E4C6FCB
:102610006164204669726D776172652055706461EE
:102620007465000080B51A200880FDF7B5FF40F200
:10263000B800C2F2000080BD80B5C988012910D160
:1026400090F89C124A1E022A04D20022014641F848
:10265000082F02E0032904D1011D0122FFF712FE19
:1026600080BDFFF7EBFD80BDB0B582B00446488861
:102670000D464FF0FF3101EB102100220629ADF885
:1026800006205CD8DFE801F00408155B5B212A0016
:10269000D4F8B00202684AE0217CD4F8B4020029E0
:1026A0000CBF816AC16A0DF106008847014602200D
:1026B0001EE0C1B205291DD8DFE801F00325292D50
:1026C0003135D4F8B002426830E0207CB8BBD4F891
:1026D000B402416B0DF1060088472CE0207C70BBF2
:1026E000D4F8B402016B0DF10600884701460720BB
:1026F000487021E0D4F8B402836B03B30DF10602F5
:102700002046984717E0D4F8B00282680EE0D4F86B
:10271000B002C2680AE0D4F8B002026906E0D4F858
:10272000B002426902E0D4F8B00282693AB1207C7A
:102730000DF1060190470146012030B914E0204612
:10274000FFF77CFD0021002070B1BDF8060048B104
:10275000EA883AB1904238BF02462046ADF80620DA
:10276000FFF790FDE88808B102B0B0BD2046FFF742
:1027700097FD02B0B0BD0000017849B1411E0020B4
:102780008A780130002A01F10101F9D1C0B2704705
:102790000020C0B27047000080B590F89C22013A3A
:1027A000022A0FD8C98802290CD1D0F8A41203221A
:1027B000002908BF0122014641F80C2F0222FFF731
:1027C00061FD80BDFFF73AFD80BD000070B5F0B13E
:1027D000164605460C46FFF7CFFF022101EB4000ED
:1027E00030802070032060702878002808BF70BDFA
:1027F000691E0222002300BFD6B246F00105A05593
:10280000635588780232002801F10101F4D170BDCE
:10281000032884BF0220704740F20021C000C0F2AC
:10282000012121FA00F0C0B270470000002804BF67
:102830000220704780B5D0F8B432002B1CBF0023B3
:10284000C0F8B432002918BFC0F8B012012180F8D6
:102850009C12027000F0B0F8002080BD80B5D0F866
:10286000C002FEF7D3F8FFF7D3FF80BDB0B5044632
:1028700069B1D4F8B40242693AB194F89C020328D1
:1028800003D120469047002050E00220B0BDD4F88C
:102890009402002818BF042804D12046802100F0AB
:1028A00059F93AE0022838D1D4E90810814208D910
:1028B000081A83B22062204611461A46FFF7B6FC7A
:1028C00013E0E169814217D3B1FBF0F202FB101073
:1028D00090B9D4F8980281420ED2204600210022FD
:1028E0000025FFF7A3FCC4F89852204600210022DF
:1028F000002300F0A9F810E0D4F8B402C16829B1AF
:1029000094F89C02032801D1204688472046802164
:1029100000F020F92046FFF7A9FC94F8A002012856
:102920004FF0000004BF84F8A002B0BDB0BD0000AD
:10293000B0B5044669B1D4F8B40282693AB194F8EA
:102940009C02032803D12046904700251AE002206C
:10295000B0BDD4F894020025052815D0032811D164
:10296000D4E95810814217D9091AC4F8601181427C
:1029700038BF084683B2204611461A46FFF74EFC80
:102980000020B0BD2846B0BD20460021C4F89452B6
:1029900000F0E0F82846B0BDD4F8B402016929B1CE
:1029A00094F89C02032801D1204688472046FFF76F
:1029B00077FC0020B0BD000010B5044640F6603042
:1029C00045F60041C2F20000C4F2000108220223D1
:1029D00080E80E000021C0F8EC42C4F8C002C0E953
:1029E00006110162FEF78AFB002818BFFDF7CEFD35
:1029F000D4F8C002002100221823FDF7C7FFD4F845
:102A0000C002802100225823FDF7C0FF002010BD26
:102A1000D0F8C00201F07F0202EB820200EBC2009C
:102A200000F12A02090658BF00F5B5721078704708
:102A300080B59446D0F8C0021A466346FEF716FAEF
:102A4000FFF7E6FE80BD000080B5D0F8C002FEF7BB
:102A500039FAFFF7DDFE80BDF0B581B0002100221C
:102A60004023044600254026FFF7E2FF01272046C9
:102A7000802100224023C4F85871C4F86461FFF734
:102A8000D7FFD4F8B802A761666284F89C72C4F8D4
:102A900094526560C4F8A45228B1D4F8B40200215D
:102AA000426820469047002001B0F0BD90F89C128B
:102AB000042904BF90F89D1280F89C1200207047F2
:102AC00080B590F89C12032905D1D0F8B412C969D9
:102AD000002918BF8847002080BD00000246002062
:102AE0001174704780B5D0F8C002FEF7C1FBFFF744
:102AF0008FFE80BDB0B500F52A750446284600F06B
:102B000053F894F8A8020121B4F8AE22C4F8941244
:102B100000F01F010229C4F8982208D001290CD026
:102B200089B92046294600F0DBF80020B0BD2046D8
:102B3000294600F00FF90020B0BD2046294600F0DC
:102B4000ADF90020B0BD00F08001204600F002F891
:102B50000020B0BD80B5D0F8C002FEF7CDF9FFF778
:102B600057FE80BD80B5D0F8C002FEF79FFBFFF78F
:102B70004FFE80BD80B5D0F8C002FEF7B1FBFFF775
:102B800047FE80BD014690F89C02042281F89D0218
:102B9000002081F89C22704780B5D0F8C002FEF773
:102BA000E1F9FFF735FE80BD0A7802704A7842707D
:102BB0004A8842808A888280C988C1807047000024
:102BC00000290EBF0220C0F8B41200207047000098
:102BD000B0B58A88044642B9C88830B948887F2889
:102BE00003D894F89C12032903D12046FFF726FB53
:102BF000B0BD00F07F052046294684F89E52FFF7BD
:102C000071FF2046FFF74CFB002D14BF022001206E
:102C100084F89C02B0BD000080B5D0F8B42232B177
:102C200012689047002818BF0120400080BD022094
:102C300080BD0000B0B54A8840F23725D1B20446C5
:102C4000C2F2000502292A7003D32046FFF7F6FAE4
:102C5000B0BD94F89C0203280CD002281AD141B3CD
:102C6000032084F89C0220466160FFF7D5FF02280C
:102C7000EBD01EE0B1B1606888421AD0C1B22046E4
:102C8000FFF7B0FA297820466160FFF7C5FF0228F8
:102C90000FD1DAE72046FFF7D1FA29782046FFF76F
:102CA000A1FAB0BD022084F89C0220466160FFF7C3
:102CB00099FA2046FFF7F4FAB0BD000080B54988C4
:102CC000012918BF80BD0121C0F8A412FFF7E8FA5E
:102CD00080BD000080B5FFF745FF002080BD0000EB
:102CE00080B50A7812F0600209D0402A01D0202A6B
:102CF00013D1D0F8B42292689047002080BD4A7862
:102D0000092A0AD8DFE802F0050D09110915210981
:102D1000191DFFF741FD002080BDFFF78FFA00204D
:102D200080BDFFF767FA002080BDFFF7C7FF0020D6
:102D300080BDFFF74DFF002080BDFFF77DFC002028
:102D400080BDFFF777FF002080BDFFF78DFC0020DE
:102D500080BD0000B0B50A460978044611F0600154
:102D60000BD0402901D0202919D1D4F8B402114642
:102D70008368204698470020B0BD5078117998B1FB
:102D800001282CD0032868D194F89C02032839D05C
:102D9000022862D141F0800080285ED029E02046E0
:102DA000FFF74CFA0020B0BD94F89C02032835D000
:102DB000022852D141F0800080284ED101F07F00DE
:102DC00000EB800004EB800000F11402090658BFFC
:102DD00000F5AA72002010602046114658E094F8D1
:102DE0009C0203283ED0022837D141F08000802881
:102DF00033D02046FFF7AEFE20468021FFF7AAFE23
:102E00000020B0BD5088A8BB41F08000802831D0A0
:102E1000D08878BB2046FFF79DFE2BE001F00F0223
:102E200002EB820211F0800004EB82020CBFD2F8A8
:102E3000582192698AB101F07F0202EB820204EB11
:102E4000820202F11405002841F0800008BF02F55B
:102E5000AA75802813D1002017E02046FFF7EEF96D
:102E60000020B0BD508800289CD1480602D02046E2
:102E7000FFF7F4FC2046FFF713FA0020B0BD204610
:102E8000FFF7C6FD0028E6D001202860204629462D
:102E90000222FFF7F7F90020B0BD0000B0B50D46E3
:102EA0000978044611F0600118BF40290DD194F84B
:102EB0009C020138022803D8A88810F0FE0F0BD01E
:102EC0002046FFF7BBF90020B0BD2029EFD02046F7
:102ED000FFF7B4F90020B0BDD4F8B40229468268E7
:102EE000204690470028F5D1E8880028F2D12046F6
:102EF000FFF7D6F90020B0BD10B50446D0F8B402F3
:102F000021794268204690472046FFF733FE002093
:102F100010BD00007047000040F23840C2F20000CF
:102F2000704700002DE9F0410C78024691F803E06B
:102F300000EB840330F8240047F27066BEF1030F03
:102F400020EA060507D80020DFE80EF002070D0A88
:102F500045F4007506E0012005E045F4806501E0D8
:102F600045F4C065002048F2800C45EA0C051D8040
:102F70001D8840F60F763540254345EA0C051D8037
:102F80000D7B002D49D01D8840F60F66354048F274
:102F90008006BEF1020F08BF06F5807635431D801E
:102FA000B2F850500E8902EB0414254426F00106B5
:102FB000A5F80064B2F850204D89224425F00104A0
:102FC000A2F8084449781A88002902F4804148D0C0
:102FD00039B1198840F60F7211400CF58042114347
:102FE00019801988490607D5198840F60F721140D3
:102FF0000CF1400211431980198840F63F721140CC
:103000000CF120024A40BEF1010F08BF41EA0C0258
:103010001A80198843F60F7242E04E78B2F8505089
:10302000002E4FEA041641D0C98832442A4421F0C8
:103030000101A2F800141988490607D5198840F63D
:103040000F7211400CF1400211431980198840F6AB
:103050003F72BEF1010F01EA020122D00CF1200201
:1030600072E039B1198840F60F7211400CF58042B8
:10307000114319801988490607D5198840F60F723F
:1030800011400CF1400211431980198843F60F7268
:1030900011400CF5405251401980198840F63F729A
:1030A000114041EA0C011980BDE8F081B1F806E059
:1030B000164477192EF00105A7F80854B2F850E02D
:1030C00006F20C4535F80E606FF39F2625F80E606A
:1030D00009693F290CD3CF063EF805704FEA511617
:1030E0004FF0FF3808BF08EB511647EA86210BE086
:1030F00041B101F001063EF8057006EB510147EAC7
:10310000812106E03EF8051048F20006CFF6FF7672
:1031100031432EF805101988490407D5198840F65F
:103120000F7739400CF580473943198034B119883D
:1031300043F60F7211400CF5005205E0118843F67A
:103140000F7211400CF5405251401980BDE8F081DA
:103150000020704700207047002070470146012082
:10316000A1F8400000220020A1F84020A1F844204E
:10317000A1F85020704700000146B0F8400044F22A
:10318000FF0202400020A1F8402070470020704755
:1031900080B50A7B0AB1002080BD0A784B7830F8F0
:1031A00022C04FEA4202C3B15FEA4C6348F2A00C6E
:1031B0000BD530F812E040F60F730EEA030E0CF157
:1031C000200343EA0E0320F81230C9780129E2D027
:1031D00030F8121040F63F7312E05FEA4C414BF2B8
:1031E000800C09D530F8123040F60F7119400CF5FB
:1031F0008053194320F8121030F8121043F60F7361
:10320000194081EA0C0120F81210002080BD000056
:1032100002460B78487832F823C040F63F71002808
:1032200048F2900008BF43F60F71CFF6FF7008BF59
:1032300000F57F6001EA0C014140002022F82310D4
:10324000704700002DE9F04381B00D464978814672
:10325000012944D1AF692A69287B974288BF174664
:1032600000284BF2800860D0E8782B6A022840F0F2
:103270008F80287840F60F6C39F820404600934242
:1032800004EA0C0240F2E080A8F53C54224329F8FD
:103290001620DA1B2A6239F81620520600F1018145
:1032A000012900F04E81002940F02C82B9F850101D
:1032B00009EB001000F20440425A3F2F6FF39F22A7
:1032C0004252C0F09D81FE064FEA57120E5A4FF04F
:1032D000FF3308BF03EB571246EA82220FE2287B36
:1032E00090B3E878012879D0022840F09E80002928
:1032F00040F05481B9F8502028784A44000102F285
:103300000442135A6FF39F2313522B693F2BC0F0D3
:103310000581DC06845A4FEA53174FF0FF3608BF89
:1033200006EB531744EA872332E16969EA88BBB2A6
:10333000484600F0C9FAB9F850002978484400EB33
:103340000110A0F8047474E2A96928690A1A38BF48
:103350000022AA61B9F850302A7888BF014609EBEB
:103360000300120100F20C439F5A4BF280006FF3EE
:103370009F273F299F525CD3CC06D45A4FEA51175E
:103380004FF0FF3608BF06EB511744EA8721A7E04C
:10339000D81B2A78286239F82200400664D4012913
:1033A00000F0AB80002940F0AF80B9F8500009EB85
:1033B000021101F204410A5A3F2F6FF39F220A5271
:1033C000C0F0C780FE064FEA5712465A4FF0FF334F
:1033D00008BF03EB571246EA822282E12869AA69F4
:1033E000131A38BF002388BF02460129AB617BD086
:1033F000002940F01E81B9F8503028784B44000174
:1034000003F204431F5A3F2A6FF39F271F52C0F055
:103410008E80D4064FEA5217C45A4FF0FF3608BFC9
:1034200006EB521744EA872700E1012001B0BDE80E
:10343000F083002953D001F00107D65A07EB510160
:1034400046EA8121D15248E1A8F54051114329F8BB
:103450001610B9F8501009EB00100844A0F8043415
:103460002A8969699BB2E1E101294FD0002940F026
:103470004181B9F8500009EB021101F20C410A5ADE
:103480003F2F6FF39F220A526ED3FE064FEA571268
:10349000465A4FF0FF3308BF03EB571246EA822229
:1034A00025E101296BD0002940F07381B9F8501053
:1034B00009EB001000F20C40425A3F2F6FF39F229D
:1034C0004252C0F0A780FE064FEA57120E5A4FF044
:1034D000FF3308BF03EB571246EA822256E1D15A66
:1034E00041F40041D152F8E0B9F850002B7848443B
:1034F00000EB0310A0F804249BE0B9F8500009EB9E
:1035000002110844A0F804742A89F4E0B9F85000C4
:1035100009EB02110844A0F80C74EBE0BBB303F014
:103520000107865A07EB530346EA832335E0002A56
:103530007BD002F00107C65A07EB520746EA8727FD
:1035400076E0B9F8501009EB00100844A0F80474B4
:10355000D8E0002F00F0C48007F00102435A02EBCC
:10356000570243EA8222BEE0002F00F0BF8007F03E
:103570000102435A02EB570243EA8222B9E0B9F84A
:10358000501009EB00100844A0F80C7401E1835AB4
:1035900048F20007CFF6FF773B43835201291BD047
:1035A00000297BD1B9F8501028784944000101F274
:1035B0000C410A5A6FF39F220A522A693F2A15D3F7
:1035C000D606465A4FEA52134FF0FF3708BF07EBB3
:1035D000521346EA83225EE0B9F850002978484445
:1035E0002A6900EB0110A0F80C2457E0002A51D002
:1035F00002F00103475A03EB520247EA82224CE0F1
:10360000002F7BD007F001020B5A02EB570243EA6E
:10361000822276E0002F00F0B88007F001020B5AFA
:1036200002EB570243EA8222B2E0C75A47F400474E
:10363000C75201294BF280001AD000294DD1B9F8A8
:10364000503029784B44090103F20C435F5A3F2A5A
:103650006FF39F275F5214D3D406CC5A4FEA521708
:103660004FF0FF3608BF06EB521744EA872231E0DD
:10367000B9F850102B78494401EB0311A1F80C2440
:103680002BE032B302F00107CE5A07EB520246EAB2
:10369000822221E0425A42F400424252E869002864
:1036A0004BF2800019D0297844F2400339F82120E8
:1036B0001A409A4218BF002A0FD1490039F8112048
:1036C00040F60F731A40A0F53F531A4329F8112012
:1036D00003E0CA5A42F40042CA5243F60F71AEE008
:1036E000425A42F4004242522A8904E0425A42F4C9
:1036F000004242526A896969BBB297E00A5A42F4B1
:1037000000420A522A896969BBB2484600F0DCF8D7
:1037100068692A69C119286A00236961904288BFD3
:10372000C31B6A7888BF3846012A2B6219D002BBB6
:10373000B9F850302A784B44120103F20C439F5AD7
:103740003F286FF39F279F5215D3C4064FEA5017A7
:10375000D45A4FF0FF3608BF06EB501744EA8727CC
:1037600059E0B9F850202B784A4402EB0312A2F832
:103770000C046A8959E000284CD000F00107D65AA1
:1037800007EB500746EA872747E00A5A42F400420F
:103790000A526A896969BBB2484600F095F86869BF
:1037A0002A69C119286A00236961904288BFC31B36
:1037B0006A7888BF3846012A2B6219D0A2BBB9F8B3
:1037C00050302A784B44120103F204439F5A3F2899
:1037D0006FF39F279F5214D3C4064FEA5017D45A51
:1037E0004FF0FF3608BF06EB501744EA872718E072
:1037F000B9F850202B784A4402EB0312A2F80404D3
:1038000012E068B100F00107D65A07EB500746EA0C
:10381000872708E0D75A47F40047D7526A8904E05F
:10382000D75A47F40047D7522A8983B2484600F056
:103830004BF842F6D070A8EB000040F63F712A78B2
:1038400039F822301940484029F82200002001B000
:10385000BDE8F08301460020A1F844004FF43F4248
:103860000020A1F84020704780B540F66030C2F2D9
:103870000000FDF793FB80BDB0F8440070470000E6
:1038800000EB42000022B2EB530F00F580620BD038
:1038900058080239043A00BF32F804CF013821F841
:1038A00002CFF9D102310432D8071CBF108808704A
:1038B0007047000000207047002904BF8021A0F855
:1038C0004C1000207047000003F1010C0023B3EB03
:1038D0005C0F08BF704700EB42024FEA5C03881E92
:1038E00002F57F7130F8022F013B21F8042FF9D146
:1038F00070470000FEE70000002848BF704700F056
:103900001F01012202FA01F14EF200124009CEF22B
:10391000000242F8201070474EF60C50CEF2000024
:103920000068C0F3022070474EF6145300F00F02F7
:10393000CEF2000309011A4400F16043B0F1FF3FE9
:10394000C8BF03F564421170704700004EF60C5179
:10395000CEF200010A684FF6FF031A4060F30A2214
:1039600042F0806040F0FD70086070474EF60C50E9
:10397000BFF34F8FCEF200000168042201F4E06132
:10398000C0F2FA5211430160BFF34F8F00BFFDE751
:10399000FCF786FFFEF7A0FBFEF7BAF8FEF7E6F8A5
:1039A000FEF75AF9FEF704F9FEF71EF9FEE70000EC
:1039B00000000000000001020304060708090000DF
:1039C00000000102030440496E7465726E616C2050
:1039D000466C6173682020202F30783038303030CA
:1039E0003030302F30332A3031364B612C30312A91
:1039F0003031364B672C30312A3036344B672C301F
:103A0000372A3132384B672C30342A3031364B6705
:103A10002C30312A3036344B672C30372A3132384B
:103A20004B670000483A000800000020D800000062
:103A300028010008203B0008D8000020D81300000F
:103A4000440100080000000079250008B1250008A5
:103A5000C1250008ED250008252600085525000889
:103A6000892500080024F40019240008C122000858
:103A70007D2400080523000801230008B92200085E
:103A8000BD22000879240008652400086924000884
:103A9000D5230008D5230008D5230008E523000816
:103AA000F523000809021B00010102C032090400CD
:103AB0000000FE01020609210BFF0000041A0100AC
:103AC0000A0600020000004001000000C63900089C
:103AD000051B0008F91A0008FD1A00080D1B000854
:103AE000091B0008011B0008120100020000004031
:103AF000830411DF00020102030100000403090432
:103B00001A03000000000000000000000000000098
:103B10000000000000000000000001001000000094
:04000005080000ED02
:00000001FF
